:020000040800F2
:10000000A0050020450100086F360008E72500081C
:100010006D36000859090008233A00080000000066
:1000200000000000000000000000000093360008FF
:10003000750A00080000000091360008C336000869
:100040005F0100085F0100085F0100085F01000810
:100050005F0100085F0100085F0100085F01000800
:100060005F0100085F0100085F0100085F010008F0
:100070005F0100085F0100085F0100085F010008E0
:100080005F0100085F0100085F0100085F010008D0
:100090005F0100085F0100085F010008150B000800
:1000A0005F0100085F0100085F0100085F010008B0
:1000B000793700085F010008853700085F010008F4
:1000C0005F010008E92500085F0100085F010008E2
:1000D0005F0100085F0100085F0100085F01000880
:1000E000790A00085F0100085F0100085F0100084D
:1000F0005F0100085F0100085F0100085F01000860
:100100005F0100085F0100085F0100085F0100084F
:100110005F0100085F0100085F0100085F0100083F
:100120005F0100085F0100085F0100085F0100082F
:10013000DFF80CD000F0FEFB00480047C143000888
:10014000A00500200648804706480047FEE7FEE776
:10015000FEE7FEE7FEE7FEE7FEE7FEE7FEE7FEE777
:100160003137000831010008202A04DB203A21FA47
:1001700002F00021704721FA02F3D040C2F12002C0
:100180009140084319467047D2B201E000F8012BB4
:10019000491EFBD270470022F6E710B513460A4607
:1001A00004461946FFF7F0FF204610BDF0B480EA80
:1001B0000102D40F4200B2EB410F02D202460846C0
:1001C00011464A0042D0C30DDDB2C1F3C752AD1A89
:1001D000202D35DAC1F3160141F4000204B1524278
:1001E000C5F1200602FA06F12A411044B3EBD05FB4
:1001F00023D0C4B1012DA0EBC35009DCF0BC4FF0FB
:10020000004202EAC352DBB200F5000000F0D7BAA8
:10021000400000F1807000EBC350A0F1807040EA14
:10022000D170490009E0490841EAC071A0EBC35010
:1002300000F50000400800EBC350F0BC00F0B6BA77
:100240006142012202EB4101001BF6E7F0BC70475E
:1002500081F00041AAE780F00040A7E730B480EACF
:10026000010202F0004530F0004221F0004013D0BE
:1002700090B1C30DD40DC2F31601C0F31600E41AF9
:1002800041F4000140F400027D34914201D3641C2A
:1002900000E04900002C02DA30BC002070474FF427
:1002A00000000023914201D3891A034340084FEA1A
:1002B0004101F7D151B1914202D14FF0004105E027
:1002C00002D24FF0010101E06FF0010103EBC450D5
:1002D000284430BC00F06ABA420005D0C0F3C752CF
:1002E0005242914201DC0020704700EBC150704740
:1002F0002DE9FE4F804681EA0300C00F0C460090B6
:1003000021F0004123F00045B8EB0200A94105D2DD
:100310004046214690461C460B46024623F00040CC
:10032000104347D0270DC7F30A00C3F30A510290C8
:10033000401A019040286BDAC3F3130040F4801B8D
:100340000098924620B10023D2EB030A63EB0B0B1B
:1003500001985946C0F14002504600F006FA0646A0
:100360000D4650465946019A00F00EFA10EB08006F
:100370006141002487EA115284EAE7731A4340D0AE
:10038000009A62B3019A012A4FEA075215DC001B5A
:1003900061EB02014FF0004202EA0752CDE9004250
:1003A000001C41F5801132462B4600F045FA03B09F
:1003B000BDE8F08F40462146F9E7001B61EB0201E2
:1003C000001C41F5801300185B412018A2F50017AE
:1003D00047EB030140EAD570B6196D4111E06D0895
:1003E0004FEA360645EAC0754FEA0752001B61EB3B
:1003F0000201001C41F5801149084FEA3000001944
:10040000514132462B4603B0BDE8F04F00F005BA2B
:100410000098012240000023D0EB020263EBE0735E
:10042000009821464FEAE074B8EB000061EB04014C
:10043000E9E783F000435BE781F0004158E72DE9ED
:10044000FE4F81EA030404F0004421F000410094CF
:100450004FF0000B23F0004350EA01045ED052EA53
:1004600003045BD0C3F30A54C1F30A552C44A4F22D
:10047000F3340194A0FB0254C1F3130141F4801141
:10048000C3F3130343F4801301FB024400FB034E48
:10049000840A970A44EA815447EA8357A4FB076811
:1004A00002958D0A05FB07854FEA932C04FB0C543B
:1004B0002705029D4FEA065847EA1637B5EB0805AF
:1004C0006EEB070C870E920E47EA811742EA831201
:1004D000A7FB0201B6EB0B0164EB00042B0D43EA12
:1004E0000C335E1844EB1C50DA465146E7FB020120
:1004F000C5F313044FEA0B3343EA14534FEA0432B3
:10050000019C43EA0603A4F10C040294009CCDE98B
:1005100000B400F091F903B0BDE8F08F002001466F
:10052000F9E72DE9F04D81EA030404F0004B21F0D6
:10053000004514464FF0000A23F0004150EA05023E
:1005400020D054EA01021DD0C5F30A570246C5F374
:100550001303C1F31300C1F30A5640F4801543F4AA
:100560008013A7EB0608101BD64608F2FD3873EB84
:10057000050002D308F1010801E092185B41B8F1CF
:10058000000F03DA00200146BDE8F08D00204FF493
:100590008011064684460EE0171B73EB050705D352
:1005A000121B63EB050306434CEA010C49084FEAB2
:1005B000300092185B4150EA0107EDD152EA030086
:1005C00012D082EA040083EA0501084305D0101B1B
:1005D000AB4106D20122002306E000224FF0004387
:1005E00002E06FF0010253101AEB06004CEB0851C9
:1005F00010EB0A0041EB0B01BDE8F04D00F00DB926
:1006000096230022114600F0DAB80EB540F23341CD
:1006100002910021CDE900110A460B4600F00CF9C9
:1006200003B000BD20F00040C10DC0F3160040F43F
:1006300000007F2901DA00207047962903DCC1F110
:100640009601C840704796398840704700F00042D4
:1006500030F000400AD0C10D01F56071C0F3160002
:1006600042EA0151C2084007114370470020014689
:100670007047000030B5041E71F1000404DB4FF038
:100680000044404264EB0101141E73F1000405DBD9
:100690001C464FF00043524263EB04038B4208BFF9
:1006A000824230BD01F0004330B421F0004150EAF5
:1006B000010206D00A0DA2F56072C1F31301002AEF
:1006C00002DC30BC00207047440F44EAC104C10082
:1006D000E01830BC00EBC25000F068B830B50B46F3
:1006E000014600202022012409E021FA02F59D4262
:1006F00005D303FA02F5491B04FA02F52844151E36
:10070000A2F10102F1DC30BD2DE9F05F05460020C9
:1007100092469B4688460646814640241BE0284672
:10072000414647462246FFF71FFD53465A46C01A28
:10073000914110D311461846224600F016F82D1AA2
:1007400067EB01084F4622460120002100F00DF81A
:1007500017EB00094E41201EA4F10104DFDC4846DE
:1007600031462A464346BDE8F09F202A04DB203A62
:1007700000FA02F1002070479140C2F1200320FAF4
:1007800003F3194390407047202A06DBCB17203A29
:1007900041FA02F043EAE07306E041FA02F3D04086
:1007A000C2F1200291400843194670470029A8BFB2
:1007B0007047401C490008BF20F00100704710B48A
:1007C000B0FA80FC00FA0CF050EA010404BF10BC3F
:1007D000704749B1CCF1200421FA04F411FA0CF16C
:1007E00018BF012121430843A3EB0C01CB1D4FEAA5
:1007F00000614FEA102042BF002010BC704700EBA0
:10080000C35010440029A4BF10BC7047401C4900CD
:1008100008BF20F0010010BC704710B5141E73F122
:10082000000408DA401C41F1000192185B411A43B0
:1008300001D120F0010010BD2DE9F04D92469B46FC
:1008400011B1B1FA81F202E0B0FA80F220329046A2
:10085000FFF78BFF04460F4640EA0A0041EA0B010E
:1008600053465A46084313D0114653EA010019D0A3
:10087000C8F140025046FFF777FC05460E46504649
:1008800059464246FFF771FF084305D0012004E0B6
:1008900020463946BDE8F08D0020054346EAE07663
:1008A0002C4337430A986305E40AA0EB08000022B2
:1008B000FD0A44EA47540A3002D500200146E9E720
:1008C000010510196941DDE9084500196941BDE8D4
:1008D000F04DA2E7C1F30A52C1F3130140F2FF3316
:1008E00041F480119A4202DA00200146704740F23A
:1008F00033439A42A2F2334202DC5242FFF734BC45
:10090000FFF733BF30B5041E71F1000404DB4FF074
:100910000044404264EB0101141E73F1000405DB46
:100920001C464FF00043524263EB0403994208BF58
:10093000904230BD064C074D06E0E06840F00103F0
:1009400094E8070098471034AC42F6D3FFF7F4FB65
:10095000E0490008004A0008FEE700002DE9F041E8
:10096000144E00250421304602F094FE0024012795
:100970000421304602F099FE00220421304600F0A6
:1009800050FB012003F0F2FC0421304602F082FE0D
:100990000421304600F040FB18B107FA04F0284368
:1009A000C5B2322003F0E2FC641C082CE0DB2846D0
:1009B000BDE8F0810008014070B5114D002404210C
:1009C000284602F072FE00220421284600F029FB8E
:1009D0004FF4F07003F0CAFC0421284602F05AFEDE
:1009E000502003F0C3FC0421284600F015FB00B999
:1009F00001244FF4C87003F0B9FC204670BD00001C
:100A0000000801402DE9F041194D06460421284611
:100A100002F04BFE0024012707FA04F030424FF0A9
:100A20000401284611D002F040FE0022042128468D
:100A300000F0F7FA012003F099FC0421284602F0A7
:100A400029FE322003F092FC0DE002F02EFE00227F
:100A50000421284600F0E5FA322003F087FC042147
:100A6000284602F017FE641C082CD5DBBDE8F08197
:100A700000080140704700002DE9F041142000F00B
:100A8000B5F91F4C20681F4D80040CD510211E485D
:100A900000F009F92021284602F007FE002220215B
:100AA000284600F0BEFA2068184E00044FF40047B4
:100AB00006D53946164800F0AFFA08B90120707023
:100AC0002068C0040ED510210F4800F0ECF820215A
:100AD000284602F0EAFD00222021284600F0A1FA73
:100AE000002030704FF4805000F094F94FF4005023
:100AF00000F090F93846BDE8F04100F08BB90000F5
:100B0000140401400008014078000020310000205A
:100B1000000C014070B5144D2868144E144C0006AA
:100B200009D5142000F062F98021304600F074FAF3
:100B300008B90120A07028684FF4007580050AD517
:100B4000142000F053F92946304600F065FA10B938
:100B50002278521C2270802000F05CF92846BDE803
:100B6000704000F057B9000014040140001001402B
:100B700031000020704770B54379012B1AD0012451
:100B8000447102230371D1E900310B4301680D6800
:100B900040F6FE769640B54393401D430D600168D4
:100BA0000B68C0259540AB430B6004710021417177
:100BB000084670BD022070BD70B5040003D02079D6
:100BC000002510B105E0012070BD6571204600F0E0
:100BD00007F802202071256101202071002070BDDE
:100BE00000B585B000210091019102910391006848
:100BF0000E49884218D10E48C16941F00051C161C7
:100C0000C16901F000510491816941F004018161E1
:100C10008069694600F004000490202000900320C1
:100C20000190044800F002F905B000BD00740040D6
:100C3000001002400008014018B5046800940068E4
:100C4000104421B1143000900360002018BD08301A
:100C5000F9E730B54279012A12D00123437102220B
:100C600002710268146803FA01F52C43146000292C
:100C700001680A6806D0C2F383420F2A0AD00DE049
:100C8000022030BDC2F383020F2A07D14A6842F026
:100C9000010202E04A6842F002024A600371002148
:100CA0004171084630BD30B502681468012505FA67
:100CB00001F39C4314600571002030BD2DE9F05F05
:100CC00090F821100024022903D00421816301241B
:100CD00085E001680A6822F00E020A6001680A686D
:100CE00022F001020A603F4E3E4FB215DFF8F4C019
:100CF000DFF8F090DFF8ECA0DFF8E8B0DFF8E4E030
:100D00000168783F13011502ACF1640CA9F1500998
:100D1000AAF13C0AABF1280BAEF1140E4FF4801887
:100D2000B14227D9B9420ED0614512D049451DD0F4
:100D3000514518D0594518D0714501D1424615E0AA
:100D4000294EB14201D1012210E0274E1436B142A2
:100D500001D110220AE0244E2836B14206D0224AA0
:100D60003C32914201D11A4600E02A461E49091F31
:100D70000A602BE0B94213D0614517D0494522D013
:100D800051451DD059451DD0714501D142461AE04B
:100D9000B14202D14FF0807215E0134EB14201D141
:100DA000012210E0104E1436B14201D110220AE0A7
:100DB0000D4E2836B14206D00B4A3C32914201D149
:100DC0001A4600E02A46074980394A60012180F826
:100DD0002110002180F82010416B01B18847204686
:100DE000BDE8F09F800002400804024070B5044650
:100DF00000F01CF90546601C02D004480078044449
:100E000000F014F9401BA042FAD370BD400000204E
:100E100070470000044910B50A68024202D0086019
:100E2000FFF7F6FF10BD0000140401402DE9F84F54
:100E3000DFF8BC91002309F1040A0AF1040B1C46F7
:100E40004FF00F080BF1040E01270A68A7403A4043
:100E5000BA4272D1DFF89CC14D68A5EB0C0665451E
:100E60002BD00DDC032D34D005DC35B3012D19D08A
:100E7000022D2FD11BE0112D16D0122D2AD119E0F1
:100E8000B6F5881F19D006DCB6F5803F15D0B6F54B
:100E9000801F1FD111E0B6F5001F0ED0B6F5041F5C
:100EA00018D10AE0CB6815E0CB681B1D12E0CB68B7
:100EB00008330FE0CB680C330CE08B682BB1012BAF
:100EC0004FF0080303D0476104E0042302E0076108
:100ED00000E00023FF2A01D8064601E000F10406E5
:100EE0004FEA840501D9A5F12005376808FA05FC09
:100EF00027EA0C0703FA05F547EA050737604D684E
:100F0000ED006ED53C4DAE6946F00106AE61AD69AF
:100F100024F0030605F001050095384D7719BE68E9
:100F2000A5072D0F08FA05FC26EA0C06DFF8D0C04D
:100F3000604503D14FF0000C25E052E0DFF8C4C05B
:100F4000604502D14FF0010C1DE0DFF8BCC06045E8
:100F500002D14FF0020C16E0DFF8B0C0604502D1BC
:100F60004FF0030C0FE0DFF8A8C0604502D14FF04E
:100F7000040C08E0DFF89CC0604502D14FF0050C7E
:100F800001E04FF0060C0CFA05FC4CEA060CC7F821
:100F900008C04D68D9F80060ED034D4601D51643F1
:100FA00000E096432E604D68DAF80060AD035546C8
:100FB00001D5164300E096432E604D68DBF80060D3
:100FC000ED025D4601D5164300E096432E604D6864
:100FD000DEF80060AD02754601D5164300E0964389
:100FE0002E60641C102CFFF42FAFBDE8F88F0000BA
:100FF00000040140000011100010024000000140F8
:1010000000080140000C01400010014000140140A4
:1010100000180140001C01408068084000D00120F9
:1010200070470AB1016170470904FBE70148806815
:101030007047000040000020704770472DE9F05FC6
:1010400002680646D2F818805469556890F83E0048
:101050007449DFF8D0A1DFF8CCB1DFF8CC918F1C58
:101060000AF17E0A0BF13E0B102812D0402810D056
:101070000C425BD0A80559D5936930460021DB436B
:101080005B0700D501219269D243120648D58289B7
:1010900047E014F0011F05D0A80503D5304601F044
:1010A0003BFE10E05F48801D044205D0A80503D533
:1010B000706CC0B2106106E00C4204D0A80502D5E5
:1010C000304601F09CFD18EA090F14D014EA0A0F0B
:1010D00008D0680506D53C4206D13046BDE8F05F31
:1010E00001F00ABD3C421FD0A8051DD53046BDE821
:1010F000F05F01F0C1BC14EA0B0F08D0680506D5FB
:101100003C4206D13046BDE8F05F01F0A5BB3C4251
:101110000AD0A80508D53046BDE8F05F01F038BB1D
:10112000028B92B2FFF789FFBDE8F09F3D480E3079
:10113000044206D0A80504D53046BDE8F05F01F0B2
:1011400091BE18EA090F4FF0280334D014EA0A0FB1
:1011500023D0680521D53C4221D196F83D20304668
:10116000718D0029E0D0416A4C1C44620468097802
:101170002161418D491E4185418D0029D4D1292A03
:10118000D2D101684A6822F480624A602121016359
:1011900080F83D3000F0DDFBC6E73C42C4D0A80536
:1011A000C2D5708D0028BFD0706A411C7162316851
:1011B0000078086131E014EA0B0F22D0680520D5D1
:1011C0003C4220D196F83D403046718D0029ABD08D
:1011D0001269416A4D1C45620A70418D491E418564
:1011E000418D0029A0D12A2C9ED101684A6822F4A1
:1011F00080624A602221016380F83D3000F0A8FB44
:1012000092E73C4290D0A8058ED5708D00288BD0F7
:101210001169706A421C72620170708D401E708587
:1012200082E7000002000100040010007047000087
:1012300070B504001BD094F83D00002520B984F857
:101240003C50204600F04CFB242084F83D002068F0
:10125000016821F00101016000F03AFD404A616837
:10126000914201D83F4900E03F49884201D2012024
:1012700070BD3E492368B0FBF1F159606368934249
:1012800006D94FF4967359434FF47A73B1FBF3F1D7
:101290002368491C19626168914210D84900401EB8
:1012A000B0FBF1F2521CC2F30B02042A01D204205B
:1012B00022E0B0FBF1F0401CC0F30B001CE0A26880
:1012C000CAB301EBC10303EB0116431EB3FBF6F3F4
:1012D0005B1C43F480431B0536D06AB301EBC102AB
:1012E00002EB0111401EB0FBF1F0401CC0F30B00FB
:1012F00040F4804040F400402168C861D4E907010F
:10130000084321680860D4E9031008432168886015
:10131000D4E9050108432168C8602068016841F0EC
:10132000010101602564202084F83D00256384F8D4
:101330003E50002070BD00E008E001EB4106431E76
:10134000B3FBF6F35B1CC6E70120D5E701EB4101D7
:10135000401EB0FBF1F0401CC0F30B00CAE70000D8
:10136000A086010080841E0000093D0040420F005D
:1013700070477047704700002DE9F84F1F469046B0
:101380008A460446DDF82890FFF750FE054694F89B
:101390003D0020287ED1192301227849204600955E
:1013A00001F0F5FD0028F5D194F83C00012871D03A
:1013B000012084F83C0020680168C90703D1016856
:1013C00041F0010101602068016821F400610160C1
:1013D000222084F83D00102084F83E000026266478
:1013E000C4F8248067856648E062608D20852B46BE
:1013F0004A465146204601F086FA28B1206C84F80E
:101400003C60042850D073E0208D5E4F68B1012805
:1014100014D00228206801681ED041F48061016068
:1014200020684169806900909AE02068416981697B
:101430000091016841F40071016091E02068016849
:1014400021F48061016072B6206841698169009170
:10145000016841F400710AE041F40061016072B674
:101460002068416981690091016821F4806101600F
:1014700062B675E0032850D801280CD002284B46EC
:101480004FF0000239462046009512D001F07FFD52
:1014900070BB13E070E02A464946204601F0EAFDA1
:1014A00028B1206C202823D00120BDE8F88F2068C7
:1014B0004BE001F06CFDD8B972B61BE02068016802
:1014C00021F48061016072B620680169606A421C83
:1014D00062620170208D401E2085608D401E6085F7
:1014E0004B46002239462046009501F050FD08B1D8
:1014F0000320DAE72068016841F400710160206888
:101500000169606A421C62620170208D401E208564
:10151000608D401E608562B6C9E72A46494620466E
:1015200001F0A8FD0028BCD120680169606A421C56
:1015300062620170208D401E2085608D401E608596
:1015400020684169C94349070AD40169606A421C9D
:1015500062620170208D401E2085608D401E608576
:10156000208D002886D1202084F83D0084F83E603C
:1015700084F83C60002098E7022096E70200100003
:101580000000FFFF040001002DE9F84F1F469046C0
:101590008A460446DDF82890FFF748FD054694F892
:1015A0003D0020287ED11923012243492046009581
:1015B00001F0EDFC00287DD194F83C00012879D0A1
:1015C000012084F83C0020680168C90703D1016844
:1015D00041F0010101602068016821F400610160AF
:1015E000212084F83D00102084F83E000026266467
:1015F000C4F8248067853148E062608D20852B46E1
:101600004A465146204601F0EDF928B1206C84F895
:101610003C6004284CD00DE020684169806900904E
:1016200030E02A464946204601F056FD28B1206C9C
:10163000042838D00320BDE8F88F606A411C61623D
:10164000216800780861608D401E6085208D401EF5
:1016500080B2208521684A69D24352070BD450B129
:10166000606A421C626200780861608D401E60857D
:10167000208D401E20852A464946204601F060FC08
:101680000028D4D1208D0028CBD154F83D0B01681F
:1016900041F400710160202004F81E09E6776677A6
:1016A0000020C8E706E02068016841F4007101608D
:1016B0000120C0E70220BEE7020010000000FFFF8B
:1016C000704770472DE9FF4F83B09A46DDE91178E6
:1016D00093460446DDF84090FFF7A8FC054694F8D1
:1016E0003D00202870D1192301227A492046009517
:1016F00001F04DFC0028F5D194F83C00012863D09E
:10170000012084F83C0020680168C90703D1016802
:1017100041F0010101602068016821F4006101606D
:10172000222084F83D00402084F83E0000262664F4
:10173000C4F8249067856848E062608D2085CDE913
:10174000008553465A462046049901F012FB28B101
:10175000206C84F83C60042850D074E0208D5F4FEA
:1017600068B1012814D00228206801681ED041F415
:101770008061016020684169806900909BE0206879
:10178000416981690091016841F40071016092E052
:101790002068016821F48061016072B620684169A7
:1017A00081690091016841F400710AE041F400612F
:1017B000016072B62068416981690091016821F475
:1017C0008061016062B676E081E0032850D801288C
:1017D0000BD0022843464FF00002394620460095C0
:1017E00012D001F0D4FB70BB13E02A4641462046DC
:1017F00001F040FC30B1206C202824D0012007B03B
:10180000BDE8F08F20684BE001F0C1FBD8B972B69B
:101810001BE02068016821F48061016072B62068D5
:101820000169606A421C62620170208D401E208541
:10183000608D401E60854346002239462046009553
:1018400001F0A5FB08B10320D9E72068016841F445
:101850000071016020680169606A421C6262017067
:10186000208D401E2085608D401E608562B6C9E7D0
:101870002A464146204601F0FDFB0028BBD12068E6
:101880000169606A421C62620170208D401E2085E1
:10189000608D401E608520684169C94349070AD4AC
:1018A0000169606A421C62620170208D401E2085C1
:1018B000608D401E6085208D002886D1202084F810
:1018C0003D0084F83E6084F83C60002097E70220E9
:1018D00095E70000020010000000FFFF0400010077
:1018E00010B586B00021009101910291039100682A
:1018F0001449884223D1144CA06940F00800A0612B
:10190000A069694600F0080004904FF44060009020
:1019100012200190032003900C48FFF787FAE0693A
:1019200040F48000E061E069002200F4800004904F
:101930001146212000F072F8212000F063F806B073
:1019400010BD00000058004000100240000C014093
:10195000704770470248816802781144816070477F
:1019600040000020074810B5016841F010010160F7
:10197000032000F073F8002000F006F800F024F8CF
:10198000002010BD0020024070B50D4D04464FF4FC
:101990007A712878B1FBF0F00A490968B1FBF0F0E0
:1019A00000F058FB48B9102C07D200222146501EE7
:1019B00000F034F800206C6070BD012070BD0000A4
:1019C000400000204C0000200C4808B5816941F01F
:1019D00001018161816901F001010091C16941F05A
:1019E0008051C161C069064900F08050009048688C
:1019F00020F0E06040F00070486008BD0010024038
:101A00000000014000F01F020121914040098000C8
:101A100000F1E020C0F8001170470000F0B40E4B58
:101A20001B68C3F30223C3F10704042C00D9042468
:101A30001D1D072D01D2002300E0DB1E012606FA42
:101A400004F56D1E0D409D409E40761E164045EAF1
:101A50000601F0BC01F00CBE0CED00E0064A00F0FF
:101A6000070110684FF6FF03184040EA01200349C0
:101A700008431060704700000CED00E00000FA051C
:101A80002DE9F84304460078344FC00752D0F86976
:101A90000025C00008D4F86940F08050F861F8696A
:101AA000012500F0805000902D480168C90511D42F
:101AB0000168804641F480710160FFF7B7FA06467D
:101AC00004E0FFF7B3FA801B642822D8D8F800009E
:101AD000C005F6D5386A10F4407020D0A18801F412
:101AE000407181421BD0386A1E49012220F44070A7
:101AF0000A6000220A603862C00710D0FFF796FA29
:101B0000064641F2883807E0FFF790FA811B41450D
:101B100002D90320BDE8F883386A8007F4D5386A13
:101B2000616820F44070084338621DB1F86920F004
:101B30008050F8612078800705D57868A16820F486
:101B40004040084378602078C00605D57868616910
:101B500020F48000084378600020DBE7001002409A
:101B600000700040400442422DE9F047DFF8508108
:101B700004460E46D8F8000000F00700B0420CD230
:101B8000D8F8001021F007013143C8F80010D8F848
:101B9000000000F00700B0426DD12068494F810776
:101BA00012D5400703D5786840F4E060786020786B
:101BB000000703D5786840F4605078607868A168C1
:101BC00020F0F000084378602078C00742D06068B9
:101BD000012816D03968022816D0890700294ADA68
:101BE000796821F0030101437960FFF71FFA054688
:101BF000606841F2883101280ED00228894617D04A
:101C000024E039688903E9E78901E7E7FFF70EFA7D
:101C1000411B494501D916E089467868C0F3810027
:101C20000128F3D116E0FFF701FA411B49450AD814
:101C30007868C0F381000228F5D10BE0FFF7F6F9D0
:101C4000411B494502D90320BDE8F087786810F0B0
:101C50000C0FF3D1D8F80010404601F00701B14253
:101C60000BD9016821F0070131430160006800F0E1
:101C70000700B04201D00120E6E72078400705D5F3
:101C80007868E16820F4E060084378602078000715
:101C900006D57868216920F4605040EAC100786078
:101CA00000F026F87968084AC1F30311515CC84076
:101CB000064908600020FFF767FE0020C4E7000027
:101CC0000020024000100240C84900084C000020DB
:101CD0000448054900684968044AC1F30221515C7F
:101CE000C84070474C00002000100240D84900084E
:101CF00012A085B00FC88DE80F0014A0144B006827
:101D000004905968134801F00C02042A10D0082AE4
:101D10000ED1C1F38342C9031DF802000AD55968E8
:101D200004AAC1F34041515C0A4A5043B0FBF1F0B0
:101D300005B0704708494843FAE70000020304056C
:101D4000060708090A0B0C0D0E0F10100102000007
:101D50000010024000127A0000093D002DE9F84F02
:101D600004460078B64DC00747D06868C0F38100CC
:101D7000012807D06868C0F38100022809D168688B
:101D8000C00306D52868800337D5606800286ED068
:101D900033E06068B0F5803F0BD010B1B0F5A02FF4
:101DA00011D0286820F480302860286820F4802032
:101DB00002E0286840F480302860606888B1FFF74E
:101DC00035F9064609E0286840F480202860F0E7ED
:101DD000FFF72CF9801B642873D828688003F7D597
:101DE0000BE0FFF723F9064604E0FFF71FF9801B1D
:101DF0006428F1D828688003F7D42078DFF844827B
:101E000080074FF0010A4FF0000939D5686810F0DB
:101E10000C0F07D06868C0F38100022809D16868F8
:101E2000C00306D42868800713D5206901281ED175
:101E30000FE02069A8B1C8F800A0FFF7F7F8064640
:101E400004E0FFF7F3F8801B0228C5D82868800754
:101E5000F7D52868616920F0F80040EAC1002860E1
:101E60000EE0C8F80090FFF7E1F8064605E0E5E06F
:101E7000FFF7DCF8801B022823D828688007F7D4F6
:101E8000207800072CD57049A069D8B1C1F800A00E
:101E9000FFF7CCF8064604E0FFF7C8F8801B0228DD
:101EA0000FD8686A8007F7D568484FF4FA51006880
:101EB000B0FBF1F0009000BF0098411E0091FAD2F3
:101EC0000EE07CE0C1F80090FFF7B0F8064604E0B1
:101ED000FFF7ACF8801B022871D8686A8007F7D436
:101EE000207840075BD5E8690027C00008D4E8697E
:101EF00040F08050E861E869012700F080500090D0
:101F000053480168C90511D40168834641F48071C2
:101F10000160FFF78BF8064604E0FFF787F8801BA7
:101F200064284CD8DBF80000C005F6D5E06801282D
:101F30000AD008B1052813D0286A20F001002862D1
:101F4000286A20F0040002E0286A40F001002862BC
:101F5000E06841F2883B88B1FFF768F8064609E07F
:101F6000286A40F004002862EEE7FFF75FF8811B63
:101F700059455BD8286A8007F7D50BE0FFF756F87C
:101F8000064604E0FFF752F8811B59454ED8286AEF
:101F90008007F7D41FB1E86920F08050E861E0695C
:101FA000A8B36968C1F38101022947D002284846D5
:101FB00006D0C8F86000FFF739F8044639E035E08C
:101FC0004746C8F86000FFF731F8064604E0FFF71F
:101FD0002DF8801B022829D828688001F7D4206AB0
:101FE000B0F5803F05D16868A16820F4003008434F
:101FF0006860D4E908010843696821F47411084352
:102000006860C7F860A0FFF711F8044605E013E028
:10201000FFF70CF8001B022808D828688001F7D5C4
:102020000AE0FFF703F8001B022802D90320BDE8ED
:10203000F88F28688001F4D40020F8E70120F6E743
:102040000010024000004242800442424C00002046
:102050000070004010B5401EB0F1807F01D3012018
:1020600010BD4FF0E02460610F21601701F000FB0C
:102070000020A06107202061002010BD704770473C
:1020800030B590F83C20012A20D0012380F83C3064
:10209000022280F83D200268546824F070045460E5
:1020A000026854680D682C4354600268946824F0F8
:1020B000800494600268946849680C43946080F8D6
:1020C0003D30002180F83C10084630BD022030BD74
:1020D00010B5040003D094F83D0010B107E00120D2
:1020E00010BD002084F83C00204600F00DF80220CE
:1020F00084F83D00211D206801F04AFB012084F88E
:102100003D00002010BD000008B50068194A1A49BA
:10211000904208D1886940F400608861886900F4C1
:102120000060009008BDB0F1804F14D0134A904277
:10213000F8D1C86940F00400C861C869002200F005
:102140000400009011461E20FFF768FC1E20BDE829
:102150000840FFF757BCC86940F00100C861C86972
:10216000002200F00100009001211C20FFF756FC26
:102170001C20ECE7002C0140001002400008004049
:10218000022180F83D1001680A6842F001020A60ED
:10219000012180F83D10002070470168CA6842F0B4
:1021A0000102CA600068016841F00101016000207D
:1021B000704770B5044690F83C00012817D00125FF
:1021C00084F83C50022084F83D002068826822F0A8
:1021D000770222F47F4282600868502836D00DDCF6
:1021E000202858D005DC80B3102840D150E00220D0
:1021F00070BD302852D0402839D13EE060282DD023
:1022000070280BD0B0F5805F03D0B0F5005F2ED101
:1022100010E02068816821F0070109E0CB68D1E96E
:102220000121206801F005FB2068816841F07701F9
:1022300081601CE0CB68D1E90121206801F0F9FA46
:102240002068816841F48041F2E71EE0CA6849686D
:10225000206801F0C3FB5021206806E0CA68496885
:10226000206801F0CCFB6021206801F0ECFA84F8D2
:102270003D50002084F83C0070BDCA684968206861
:1022800001F0ACFB40212068EFE700212068ECE77B
:1022900010212068E9E720212068E6E73021206846
:1022A000E3E7704770B50446006801694FF0000528
:1022B000C943890715D4C168C943890711D4E91EE8
:1022C000016101202077206880698007204602D0C4
:1022D000FFF7E7FF04E000F0BFF8204600F041F907
:1022E000257720680169C943490717D4C168C943E4
:1022F000490713D46FF004010161022020772068A0
:10230000806910F4407F204602D0FFF7CAFF04E046
:1023100000F0A2F8204600F024F925772068016932
:10232000C943090716D4C168C943090712D46FF01D
:1023300008010161042020772068C06980072046D9
:1023400002D0FFF7AEFF04E000F086F8204600F070
:1023500008F9257720680169C943C90617D4C168FF
:10236000C943C90613D46FF010010161082020771A
:102370002068C06910F4407F204602D0FFF791FF2B
:1023800004E000F069F8204600F0EBF825772068BB
:102390000169C943C90708D1C168C943C90704D144
:1023A000891E0161204600F0F9F820680169C943DF
:1023B000090609D4C168C943090605D46FF0800134
:1023C00001612046FFF75AFE20680169C9434906AA
:1023D00009D4C168C943490605D46FF040010161C1
:1023E000204600F0FFF820680169C94389060BD434
:1023F000C168C943890607D46FF0200101612046F6
:10240000BDE87040FFF73BBE70BD000000B585B071
:102410000021009101910291039100680B498842CB
:1024200012D10B48816941F00801816180696946D8
:1024300000F0080004904FF480700090022001909A
:1024400003900448FEF7F2FC05B000BD0008004010
:1024500000100240000C0140704770B5044690F82F
:102460003C000D4601280DD0012684F83C60022076
:1024700084F83D0042B1042A18D0082A2AD00C2A38
:102480004DD139E0022070BD206801F0E5F92068E7
:10249000816941F0080181612068816921F00401AE
:1024A0008161206881692A69114311E0206801F087
:1024B00003FA2068816941F40061816120688169C3
:1024C00021F480618161206881692A6941EA0221E1
:1024D000816124E0206801F025FA2068C16941F09B
:1024E0000801C1612068C16921F00401C16120684F
:1024F000C1692A69114311E0206801F047FA206898
:10250000C16941F40061C1612068C16921F4806141
:10251000C1612068C1692A6941EA0221C16184F868
:102520003D60002084F83C0070BD10B5040003D06D
:1025300094F83D0010B107E0012010BD002084F8A0
:102540003C00204600F00CF8022084F83D00211DDC
:10255000206801F01DF9012084F83D00002010BD25
:102560007047704710B504460068012201F056F923
:1025700008482168814202D00748814203D1486C53
:1025800040F4004048642068016841F001010160A6
:10259000002010BD002C0140003401400F490068AC
:1025A0000968884219D10E4900228868401C886059
:1025B0000878401CC0B208703C2803D14878401C01
:1025C00048700A7048783C2803D18878401C88708D
:1025D0004A708878182800D18A707047200100203E
:1025E000000000207047FEE70148FEF727BD00000D
:1025F0008C00002010B5406A01680A6822F48062ED
:102600000A6000214185426B5163826B516390F8EF
:102610003D302022602B80F83D2080F83E1007D00E
:1026200001680A6822F001020A60FEF7FFFD10BD92
:10263000016401680A6822F001020A60FEF7FCFCEE
:1026400010BD000070B590F83D100446002620250E
:10265000006829292DD02A292BD094F83D10602913
:1026600004D04168090501D484F83D50266384F8FC
:102670003E60016821F4006101602068416809053D
:1026800037D5416821F400614160606B344990F8AE
:102690002120012A12D04163606BFEF70FFB38B393
:1026A0002068016821F00101016084F83D50606BF1
:1026B0001CE02663282184F83D10DAE7A06B416313
:1026C000A06BFEF7FBFA98B120684169C94349063F
:1026D00004D40169606A421C62620170206801686A
:1026E00021F00101016084F83D50A06B416B8847E7
:1026F0000FE094F83D1060291DD04169C943490697
:1027000004D40169606A421C626201702046FEF7CF
:102710008DFD94F83D0028280CD1206C400709D588
:102720001048E062266384F83D5084F83E602046FD
:10273000FEF71EFE70BD84F83D5026644169C94312
:10274000490604D40169606A421C62620170206813
:10275000016821F0010101602046FEF76DFCD8E719
:10276000F52500080000FFFF01684A69D2435205C1
:102770000CD46FF480624A6104210164002140F8A6
:10278000301F2022427301730120704700207047E0
:1027900010B5C26A448D2F4B0168032C03D0448DC1
:1027A000022C15D00AE0042A03D0082A01D09A424C
:1027B00003D10A6822F480620A6001680A69416AEA
:1027C0004B1C43620A70418D491E4185002010BD9B
:1027D000042A12D0082A10D09A420ED0022A0A687F
:1027E00002D022F4806201E042F480620A60016853
:1027F0004A6822F440724A6008E04A6822F4407253
:102800004A6001680A6842F400720A6001680A6955
:10281000416A4B1C43620A70418D491E4185016823
:102820000A69416A4B1C43620A70418D491E418509
:10283000202180F83D100021016390F83E2080F8AF
:102840003E10402A02D0FEF794FDBFE7FEF738FFA6
:10285000BCE700000000FFFF10B590F83D102229F2
:102860004CD1418D032909D901680A69416A4B1C81
:1028700043620A70418D491E41853FE0022909D01B
:10288000032907D0C16A022901680A6818D022F416
:10289000806217E0C16A022901680A6807D022F441
:1028A00080620A6001680A6842F4006201E042F452
:1028B00080620A600068416821F4806141601DE027
:1028C00042F480620A6001684A6822F4E0624A6069
:1028D00001680A69416A4B1C43620A70418D491EB6
:1028E0004185202180F83D100021016390F83E20B1
:1028F00080F83E10402A03D0FEF73BFD002010BDBB
:10290000FEF7DEFEFAE72DE9F84F0446C06A1D46E1
:1029100092460F4621680A6842F480620A600428E1
:1029200007D0012805D010F5803F02D0206B112878
:1029300004D12068016841F4807101604FF00118F2
:102940005346002241462046009500F020FBB8BBCC
:10295000206908F10109B0F5804F12D006202168E6
:1029600000EAD71646F0F00008612B46524608F1FF
:102970000701204600F03BFB38B1206C04282FD023
:102980001EE0F8B240F001001FE02168F8B20861D3
:102990002B4652464946204600F029FB0028ECD140
:1029A0002068416981690091016841F4807101608A
:1029B0005346002241462046009500F0E8FA10B147
:1029C0000320BDE8F88F46F0F100216808612B462E
:1029D00052464946204600F00AFB0028CDD1F0E7D8
:1029E0000120EEE7F8B50446C06A1E460D461746BC
:1029F000042807D0012805D010F5803F02D0206BB5
:102A0000122804D12068016841F4807101601346E6
:102A100000224FF001112046009600F0B8FAA0B94C
:102A20002069B0F5804F12D00620216800EAD51049
:102A300040F0F000086133463A460E49204600F067
:102A4000D6FA38B1206C042811D00320F8BD05F067
:102A5000FE0000E0E8B221680861064933463A46C4
:102A6000891F204600F0C3FA0028EBD1F8BD0120F1
:102A7000F8BD00000800010010B5C16A90F83D20C3
:102A8000212A21D1428D4AB1416A4A1C4262026820
:102A900009781161418D491E418515E020230022EE
:102AA000042913D0082911D011F5803F0ED00168F8
:102AB0004C6824F4E0644C601121016380F83E20EE
:102AC00080F83D30FEF756FC002010BD01684C68D0
:102AD00024F4E0644C6001680C6844F400740C60F9
:102AE000026380F83D3090F83E1080F83E20402987
:102AF000E8D1FEF7E6FDE7E710B590F83D2090F845
:102B00003E30C16A048D24B1212A33D0402B2FD00E
:102B100073E0212AFAD120230022042912D00829A7
:102B200010D011F5803F0DD001684C6824F4E064AA
:102B30004C601121016380F83E2080F83D30FEF7A3
:102B400019FC5AE001684C6824F4E0644C600168A8
:102B50000C6844F400740C60026380F83D3090F817
:102B60003E1080F83E204029E9D1FEF7AAFD44E05E
:102B7000222A42D1418D21B190F83E10402906D041
:102B800032E00068416821F48061416035E0016D08
:102B900031B1016D012911D0016D022915D02CE050
:102BA000C16C0129816C02D0C1F3072108E00268E1
:102BB000C9B21161016D891C01651EE0816CC9B249
:102BC00002681161016D491CF6E790F83D10222959
:102BD00004D090F83D10212906D00EE0006801686D
:102BE00041F48071016008E0416A4A1C4262026857
:102BF00009781161418D491E4185002010BD78B5CD
:102C000090F83E50C26A046B90F83D600023016862
:102C1000222E06D1066D0EB9402D02D0056D25B1CC
:102C200007E04869886900901CE00569B5F5404FE8
:102C30001AD0458D85B3458D012D20D0428D022AB5
:102C40004AD00A6842F480620A6001684A68120544
:102C500003D54A6842F480524A6001684A6989692A
:102C600000910365002078BD4A698A6900920A686C
:102C700042F480720A60016D491C0165F2E712F5A9
:102C8000803F0AD0042A21D0082A1FD0122C1DD040
:102C9000C26A022A09D114E00BE00A6822F48062B9
:102CA0000A6001684A68120503D50A6822F4806246
:102CB0000AE04A698A6900920A6842F400720A606E
:102CC000CFE70A6842F480620A60C6E70A6822F425
:102CD00080620A600168ECE7C26A022A0A680BD0C7
:102CE00042F400620A6001684A698A6900920A68CF
:102CF00022F480620A6006E042F480620A600168A1
:102D00004A698969009101684A681205A9D54A682B
:102D100042F480524A60A4E790F83E10402909D05E
:102D20000169B1F5804F10D0016D99B1016D012994
:102D300015D01CE0016D19B9416C01F0FE0114E0E1
:102D4000416CC9B241F001010FE090F83D1021291A
:102D5000F6D1F1E7416CF02201F4407103E0416CDF
:102D6000F12201F4407142EAD111006801610020B2
:102D700070472DE9F84F0446006889460B9E0168AC
:102D80009846174641F4806101602068016841F46B
:102D90008071016000964FF0011A002251462046D2
:102DA0000A9B00F0F4F8F0BB216809F0FE0008610E
:102DB0000AF1010B3346594620460A9A00F017F9EA
:102DC00018B1206C042812D03AE02068416980696B
:102DD0000090324620460A9900F07EF950B1206CEE
:102DE00004282DD12068016841F4007101600120A0
:102DF000BDE8F88FFDB2B8F1010F09D02168380A9B
:102E00000861324620460A9900F066F90028E6D1AA
:102E100020680561324620460A9900F05DF90028D5
:102E2000DDD1206800E00BE0016841F480710160B1
:102E300000960022514620460A9B00F0A8F808B1EF
:102E40000320D5E7216809F0FF0040F00100086188
:102E50003346594620460A9A00F0C9F80028B0D1F6
:102E6000C6E7000038B590F83D100268536823F4B7
:102E7000E06353600268002354690094146844F0CE
:102E8000010414600268146824F480641460026809
:102E9000546824050BD590F83D40222C2BD090F897
:102EA0003D402A2C27D0446B246864684485448DB7
:102EB000E4B15469E443640707D41469426A551CB9
:102EC00045621470428D521E428502685469E44383
:102ED000640607D41569426A541C44621570428D19
:102EE000521E4285026C42F004020264026C22B15E
:102EF000FFF7A8FB1FE0846BD6E72022282909D022
:102F00002A2907D0292905D0046B222C0CD022298C
:102F10000AD010E00949C162036380F83D2080F8BF
:102F20003E30FEF725FA06E0036380F83D2080F886
:102F30003E30FEF70DFD002038BD00000000FFFF11
:102F400070B516460D4604461AE02046FFF70CFC05
:102F500008B1012070BD681C12D025B1FEF766F8DB
:102F6000801BA8420CD954F8400F40F0200044F8D0
:102F7000100900202060202161732073032070BDA0
:102F800020684069C0434007DFD4002070BD2DE9B0
:102F9000F0471D4690460E460446C1F30747DDF84C
:102FA000209012E0681C10D02DB1FEF73FF8A0EB86
:102FB0000900A84209D9002044F8300F202161738C
:102FC000A07320730320BDE8F0872068012F0AD08A
:102FD000806926EA00000004000C06D0002040456D
:102FE000E0D00020EFE74069F3E70120F7E72DE9A3
:102FF000F047984615460E4604464FF000094FF03C
:10300000200AC1F3074729E020684069C043400512
:1030100013D42068016841F40071016021686FF4E5
:103020008060486104202064C4F8309084F83DA09A
:1030300084F83C900120BDE8F087681C0ED02DB1CB
:10304000FDF7F4FFA0EB0800A84207D944F8309F31
:1030500084F80DA084F80C900320ECE72068012F81
:1030600006D0806926EA00000004000CE3D0CBE71C
:103070004069F7E72DE9F04116460D460446002762
:103080004FF0200821E04069C043C0060CD42168FD
:103090006FF0100048612764276384F83D8084F84E
:1030A0003C700120BDE8F08125B1FDF7BFFF801B1A
:1030B000A8420AD954F8400F40F0200044F804090F
:1030C00084F8018027700320ECE720684169C94338
:1030D0004906D8D40020E5E770B516460D460446EB
:1030E0001AE02046FFF740FB08B1012070BD681CC4
:1030F00012D025B1FDF79AFF801BA8420CD954F8D5
:10310000400F40F0200044F81009002020602021EA
:1031100061732073032070BD20684069C0430006BE
:10312000DFD4002070BD10B54FF40041002000F046
:1031300047F84FF40061022000F042F84BF6C571E9
:10314000012000F03DF8BDE8104048F201010B20DD
:1031500000F036B81FB56424022303A98DE81A00D5
:103160000246012380210548FEF7ACFA9DF80D00C8
:103170009DF80C1004B040EA012010BD8C00002026
:1031800011B583B06424012303AA80210B48009465
:10319000FEF7FAF9032301AA802108480094FEF7FC
:1031A000EBF89DF806009DF8051040EA01209DF817
:1031B000041004B040EA0140000910BD8C0000205A
:1031C0001CB503238DF80400080A8DF805004FF4A0
:1031D000FA708DF80610009001AA80210148FEF7D0
:1031E000D3F91CBD8C000020012000F08FB8000036
:1031F00010B5094C012210212046FDF712FF0120D5
:10320000FDF7F4FD002210212046FDF70AFFBDE87E
:1032100010400120FDF7EABD000C014041B1012939
:1032200008D0022908D0D4210844C0B200F06EB8FA
:103230008021F9E7C021F7E79421F5E710B50020D8
:1032400000F042F8002220210F48FDF7EAFE03209B
:1032500000F03AF8FFF7CCFFFFF7CAFFFFF7C8FF0F
:10326000022000F031F8FFF7C3FF282000F04EF8ED
:103270000C2000F04BF8062000F048F8BDE81040A4
:10328000012000F043B80000000C014070B5084C6C
:103290000546012220212046FDF7C3FE284600F006
:1032A00035F82046BDE8704000222021FDF7B9BE68
:1032B000000C014010B5044602E0FFF7E7FF641C74
:1032C00020780028F9D110BD70B5044600F0010245
:1032D00004210C48FDF7A5FE0B4DC4F340024FF44A
:1032E00080512846FDF79DFEC4F38002E91428466C
:1032F000FDF797FEC4F3C00229152846BDE87040CB
:10330000FDF78FBE001401400010014010B50446C7
:103310000009FFF7D9FFFFF76BFF2046FFF7D4FF47
:10332000BDE81040FFF764BF1CB500240C490094B1
:103330000A48019408600846FDF73EFC08B1FDF715
:1033400019FC00941022694605480194FDF713FC0E
:10335000002801D0FDF70EFC1CBD000000740040E9
:10336000780000202DE9F04F85B000244E480094ED
:10337000019402940394816941F010018161816993
:1033800001F010010491816941F02001816181699E
:1033900001F020010491816941F00401816181699A
:1033A00001F004010491816941F0080181618069A3
:1033B000DFF8F89000F008004FF4705504900022F8
:1033C00029464846FDF72DFEDFF8E4A04FF480784B
:1033D000002241465046FDF724FEDFF8D8B0002217
:1033E00004215846FDF71DFE002230213248FDF72A
:1033F00018FE0095032601250396CDE90154694680
:103400004846FDF713FD4FF401708DE83100694621
:103410005046FDF70BFD294F2803CDE9000769460B
:1034200002952548FDF702FD4FF42040CDE9000745
:10343000694602952048FDF7F9FC4FF42070CDE96C
:103440000007694602954846FDF7F0FCCDF800807C
:103450000396CDE9015469465046FDF7E7FC042088
:10346000CDE90005CDE9024669465846FDF7DEFC88
:103470003020CDE90005CDE9024669460E48FDF74A
:10348000D5FC002201211720FEF7C8FA1720FEF70D
:10349000B9FA002201212820FEF7C0FA2820FEF701
:1034A000B1FA05B0BDE8F08F0010024000100140F5
:1034B0000008014000140140000C014000002110F0
:1034C0000D4810B50B4901600C49416000214FF4D3
:1034D00080428160C0E9031241618161C161016282
:1034E000FDF7A6FE002803D0BDE81040FDF742BB63
:1034F00010BD0000005800408C000020A086010094
:1035000010B586B0002417480094019402940394E7
:1035100004941349059401604721C0E901144FF652
:10352000FE71C0E9031444618461FEF7D1FD08B166
:10353000FDF720FB4FF48050009069460948FEF7E4
:1035400038FE08B1FDF716FB049404A9054805945C
:10355000FEF796FD002801D0FDF70CFB06B010BD6C
:10356000002C0140E000002010B586B00024174870
:10357000009401940294039404944FF080410594C4
:10358000016048F6A041C0E9011440F2CF71C0E9E2
:10359000031480218161FEF79BFD08B1FDF7EAFA73
:1035A0004FF48050009069460848FEF702FE08B1CB
:1035B000FDF7E0FA049404A904480594FEF760FDC1
:1035C000002801D0FDF7D6FA06B010BD200100207A
:1035D00010B58EB000240794089409940A940B94B3
:1035E0001C2168460C94FCF7D6FD1F481D4901605C
:1035F0001221C0E901144FF4C871C0E903148021FD
:103600008161FEF765FD08B1FDF7B4FA4FF4805013
:10361000079007A91448FEF7CCFD08B1FDF7AAFAF8
:103620001148FEF782FF08B1FDF7A4FA0B940BA92D
:103630000D480C94FEF724FD08B1FDF79BFA6020BD
:10364000CDE900040420049008226946029406484B
:10365000FEF703FF08B1FDF78DFA0348FEF7D6FE2B
:103660000EB010BD0008004060010020FEE770476A
:103670000907090E002806DA00F00F0000F1E0202B
:1036800080F8141D704700F1E02080F800147047A6
:10369000704770471FB50022CDE900120121CDE926
:1036A00002126946FDF7C2FB1FBD1FB50022009143
:1036B0000121CDE90112022103916946FDF7B6FB14
:1036C0001FBDFEF747B970B596B028216846FCF7D4
:1036D00062FD14210AA8FCF75EFD18210FA8FCF773
:1036E0005AFD0920012500904FF4803000240495F4
:1036F0000695CDE901040226CDE907604FF4E010FC
:1037000009906846FEF72AFB0F20CDE90A06A802B9
:10371000CDE90C4002210AA80E94FEF725FA6802B2
:10372000CDE90F500FA8FEF7ABF916B070BD000041
:103730000D48016841F00101016041680B4A1140E8
:10374000416001680A4A11400160016821F480214A
:103750000160416821F4FE0141604FF41F01816066
:103760000449C00308607047001002400000FFF8E1
:10377000FFFFF6FE08ED00E00148FEF793BD0000F4
:10378000200100200148FEF78DBD000060010020EF
:10379000F0B502681C4D1D4E1D4FDFF878C01E4B62
:1037A0004FF0804EA84209D0984207D0704505D00E
:1037B000B04203D0B84201D0604503D122F070047A
:1037C0004A682243A84209D0984207D0704505D0E4
:1037D000B04203D0B84201D0604503D122F4407416
:1037E000CA6822434C6922F08002144304608A684C
:1037F000C2620A688262A84201D0984201D1096976
:10380000016301214161F0BD002C01400004004032
:1038100000080040000C00400034014010B50123B6
:10382000046A8B409C430462036A8A401343036228
:1038300010BD10B5846842EA032224F47F440A4391
:103840002243826010BD826822F070020A4342F077
:103850000701816070470000F0B5026A22F00102A2
:103860000262026A43688469114E24F073050C6891
:10387000104F2C4322F002058A682A43B04201D03F
:10388000B84205D122F00805CA682A4322F0040292
:10389000B04201D0B84205D14D6923F440731D43B5
:1038A0008B692B4343608461496841630262F0BDC8
:1038B000002C014000340140F0B5026A22F01002F1
:1038C0000262026A436884690D6824F4E64444EAAB
:1038D00005248D6822F0200242EA05120F4D104E99
:1038E000A84201D0B04206D1CF6822F0800242EA5D
:1038F000071222F04002A84201D0B04207D14D6920
:1039000023F4406343EA85038D6943EA85034360FA
:103910008461496881630262F0BD0000002C0140AF
:1039200000340140F0B5026A22F480720262026A39
:103930004368C46922F4007224F073050C68124EC7
:103940002C438D6842EA05220E4DA84201D0B042B8
:1039500006D1CF6822F4006242EA072222F4806294
:10396000A84201D0B04207D14D6923F4405343EA45
:1039700005138D6943EA05134360C4614968C16357
:103980000262F0BD002C01400034014030B5026AF3
:1039900022F480520262036A4268C4690D6824F40A
:1039A000E64444EA05248D6823F4005343EA0533D2
:1039B000084DA84202D0084DA84204D14D6922F416
:1039C000804242EA85124260C46149680164036230
:1039D00030BD0000002C01400034014010B5046AE5
:1039E000036A23F001030362836923F0F00343EACF
:1039F000021324F00A020A438361026210BD10B56B
:103A0000036A23F0100303628469036A24F4704498
:103A100044EA023223F0A00343EA01118261016209
:103A200010BDFEE70FB4084B10B504A902AA039815
:103A300000F0DEF8044602A9002000F070FC2046E9
:103A400010BC5DF814FB00001F43000802E008C82A
:103A5000121F08C1002AFAD170477047002001E008
:103A600001C1121F002AFBD1704700002DE9FF5F42
:103A700082B00021DDE90430020DDDF840B00343DF
:103A800018D044F61050A2F2FF3242431514119898
:103A900001281FD0A5EB0B00401C5FEA000A4FF085
:103AA00000064E4FDFF83891B046504615D5CAF1A2
:103AB000000413E0119801244AA3012801D16FEA00
:103AC0000B010298119AC0E90031C0E9024206B028
:103AD000BDE8F09FCBF10000DFE704460021404A3B
:103AE000491842EB0450CDE9001012E0E00707D07E
:103AF00032463B4640464946FCF7A1FC8046894693
:103B000032463B4610461946FCF799FC06460F46DE
:103B10006410002CEAD1DDE90401DDE90023BAF1EB
:103B2000000F06DAFCF78BFC42464B46FCF787FC9D
:103B300005E0FCF7F6FC42464B46FCF7F2FC044677
:103B40000E460022284BFCF7DDFE03D84FF0FF3075
:103B5000014607E00022254B20463146FCF7C8FB12
:103B6000FCF7B8FE102409E0002C0ADB0A2200232F
:103B7000FCF7CAFD039B30321A55641E50EA01025D
:103B8000F2D1641C039AC4F111031444119A012A5E
:103B900003D0012208430DD10AE0084304D00020DD
:103BA0004FF0110B119072E7A3EB0B056D1E0DE0AA
:103BB0005B4504DD4FF0000205F1010504E003DA86
:103BC0004FF00002A5F10105002AECD002981199EE
:103BD000C0E90231C0E9004579E700000000144067
:103BE0000000F03F300000000000F0430000E03F24
:103BF0002DE9FF4F95B09B468946064600250FE20A
:103C0000252877D100242746F84A0121059400E0B1
:103C1000044316F8013F203B01FA03F01042F7D1AC
:103C200030782A2811D06FF02F033078A0F13002BD
:103C3000092A16D8059A44F0020402EB820203EB2B
:103C400042021044761C0590EFE759F8042B0592C8
:103C5000002A03DA504244F40054059044F0020470
:103C6000761C30782E2816D116F8010F44F0040483
:103C70002A280DD06FF02F023078A0F13003092BE5
:103C800009D807EB870302EB4303C718761CF3E759
:103C900059F8047B761C30786C280FD006DC4C2851
:103CA00017D068280DD06A2814D104E0742810D0E9
:103CB0007A280FD10DE044F400140AE044F4801493
:103CC00001E044F440147278824202D104F5801479
:103CD000761C761C307866280BD013DC582877D0F9
:103CE00009DC002875D04528F6D04628F4D04728AE
:103CF0001AD19DE118E0632835D0642879D0652871
:103D000012D195E1702873D008DC6728F1D06928BA
:103D10006FD06E280DD06F2806D1B5E073282CD057
:103D2000752875D0782874D05A46179990476D1C1D
:103D300075E1C4F30250022809D003280DD0D9F848
:103D4000001004280DD00D6009F1040967E1D9F8CD
:103D50000010EA17C1E90052F6E7D9F800100D800B
:103D6000F2E70D70F0E719F8041B8DF80010002041
:103D70008DF80100EA46012003E059F804AB4FF04A
:103D8000FF3061074FF0000102D40DE008F101019E
:103D90008846B9420FDA8045F8DB1AF80810002986
:103DA000F4D108E008F1010188468142FADB1AF8F3
:103DB00008100029F6D105985B46A0EB08072146BC
:103DC0003846179A00F094FA284400EB080507E0FB
:103DD0004DE029E10DE01AF8010B5A46179990477A
:103DE000B8F10108F7D25B4621463846179A13E12D
:103DF00042E00A220092C4F302524FF0000A022A63
:103E000008D059F804CB032A4FEAEC710AD00DE030
:103E100029E02AE009F1070121F00702F2E802C1D6
:103E2000914609E00FFA8CFC4FEAEC71042A03D1A9
:103E30004FFA8CFC4FEAEC71002907DA0A460021A0
:103E4000DCF1000C61EB02012D2202E0220504D519
:103E50002B228DF80420012203E0E20701D020226A
:103E6000F7E7904659E00A2102E010220DE0102108
:103E70004FF0000A00910BE010224FF0000A44F0CE
:103E800004040827009203E008224FF0000A009281
:103E9000C4F30252022A05D059F804CB0021032AA8
:103EA00008D009E009F1070121F00702F2E802C198
:103EB000914605E01FFA8CFC042A01D10CF0FF0C9E
:103EC0004FF00008220728D5702806D0009B83F009
:103ED000100353EA0A0305D00EE040228DF80420B7
:103EE000012208E05CEA010206D030228DF80420AD
:103EF0008DF8050002229046009B83F0080353EAE8
:103F00000A030AD15CEA010201D1620705D5302219
:103F10008DF804204FF001087F1E582804D034A0EB
:103F200003900EA802900DE036A0F9E753466046D4
:103F3000009AFCF7E9FB84460398825C0298401ED5
:103F4000029002705CEA0100F0D1029806A9081AFA
:103F500000F1200A600702D524F4803400E0012734
:103F6000574502DDA7EB0A0000E0002000EB0A0144
:103F7000009005984144401A0590E00306D45B4642
:103F80002146179A059800F0B3F90544002706E08A
:103F900001A85A46C05D179990476D1C7F1C474584
:103FA000F6DBE0030CD55B462146179A059800F036
:103FB0009FF9054404E030205A46179990476D1C3C
:103FC0000099481E00900029F5DC08E0029802994B
:103FD0005A460078491C0291179990476D1CBAF116
:103FE0000001AAF1010AF1DC65E1000009280100E5
:103FF000303132333435363738396162636465665F
:104000000000000030313233343536373839414220
:10401000434445460000000000F058F90544761C72
:10402000307800287FF4ECAD19B02846BDE8F08F59
:10403000620700D4062709F1070222F0070CFCE80A
:104040000223E14603F000485FEA080C02D00FF2B9
:10405000702C0DE05FEA045C02D50FF2682C07E0DB
:104060005FEAC47C02D00FF2602C01E0AFF2700C6A
:104070004FF0FF3823F00043CDF850C065280CD036
:1040800006DC452809D046281DD047283DD13DE013
:10409000662818D067287ED138E00021112F01DB77
:1040A000112000E0781CCDE9000106A90EA8FFF759
:1040B000DDFCDDE90F010E9A03910021009207F16A
:1040C000010A04914DE04FF000400097CDE9011046
:1040D00006A90EA8FFF7CAFCDDE90F0203920E9BAA
:1040E00011990022DDF80CA00093049211B9791CFB
:1040F00000EB010AB7EB0A0004D4C0F1FF3007F16E
:10410000010A0490AAEB0700019044E0012F00DAB5
:1041100001270021112F01DD112000E03846CDE9F3
:10412000000106A90EA8FFF7A1FCDDE90F010E9A18
:104130000391002104910092BA4621070CD40399FF
:10414000514500DA8A46BAF1010F05DD009AAAF15D
:104150000101515C302908D0B84202DA10F1040F95
:1041600006DA0121CDE9011015E0AAF10101E9E724
:10417000002805DC049901440491AAEB000102E047
:10418000411C514500DD8A460499401A401C0190AB
:104190004FF000400290200704D40198504501DB05
:1041A000CDF8048000208DF84F0002980DF14F07E4
:1041B000B0F1004F25D02B200E9002984FF002084E
:1041C00000280CDA404202902D200E9007E00A21D0
:1041D0000298FCF783FA3031029007F8011DB8F11C
:1041E0000001A8F10108F2DC02980028EFD1791E45
:1041F0000E980870307800F0200040F0450007F875
:10420000020D12A8C01B00F107081498007800B135
:10421000012000EB0A01019801EBE071059841448F
:10422000401A401E0590E00306D45B462146179ACB
:10423000059800F05DF805441498007818B15A46C6
:10424000179990476D1CE00324D55B462146179AC9
:10425000059800F04DF805441CE00498002807DBA1
:10426000DDE90301884203DD0098405C179901E015
:10427000179930205A469047049805F10105401CD3
:1042800004900198401E019004D12E205A4617999F
:1042900090476D1CBAF10001AAF1010ADDDC05E0CE
:1042A00017F8010B5A46179990476D1CB8F1000199
:1042B000A8F10108F4DC5B462146179A0598ABE6A5
:1042C0002D0000002B000000200000002DE9F0412F
:1042D000044600251E461746880404D405E03946E6
:1042E0002020B0476D1C641EF9D52846BDE8F0813A
:1042F0002DE9F041044600251E469046C80301D52D
:10430000302700E02027880404D505E041463846E0
:10431000B0476D1C641EF9D52846BDE8F0810A68D7
:10432000531C0B601070704710B5044608210E48EE
:10433000FEF718F90020A4F11F01092900D8642014
:10434000A4F12901092900D8C820A4F133010929C1
:1043500001D24FF496703C2C01D34FF4C87002493F
:104360000968C86310BD00006001002004490022F4
:104370000B685A6209684A6A8242FCD3704700009F
:10438000E000002010B5FEF72FFF00210720FEF708
:1043900045FF06A0FEF78EFF01210420FEF73EFF39
:1043A000BDE8104003A0FEF785BF000041496F54EF
:1043B000000000007072652D70726F647563740088
:1043C00086B0FDF7CFFAFFF77EF9FEF7CBFFFFF7D8
:1043D00077F8FEF733FFFFF7C7F8FFF7F9F8FFF7B5
:1043E0008FF8FEF7A0FEFEF7FFFE00210720FEF784
:1043F00015FFFEA0FEF75EFF01210420FEF70EFF71
:10440000FCA0FEF757FFFE48FDF7C7FEFD48FDF78D
:10441000B7FE2021FC48FFF748F900222021FA4886
:10442000FCF7FFFDDFF8E4934FF4000BDFF8E0A3A7
:10443000DFF8E0830024F84F80E000F08FFAFCF70B
:10444000F1F8C0B2FFF770FF0220FEF783FEF34DD4
:10445000A8800720FEF794FE2861FCF7D6F8F04EFE
:10446000F04B3246FBF7EBFFC5E908010520FEF7EC
:1044700087FE6861FCF7C9F8EB4AEC4BFBF7DFFFFE
:10448000C5E90A01D5E908013246E94BFCF7F2F823
:1044900002D80020C5E9080028780646FCF7B5F8E0
:1044A000D5E90823FBF7CBFF0022E24BFCF739F8F4
:1044B000FCF7F8F801463B2E03D1E868FBF776FEDF
:1044C000E86000210846FEF7A9FE287800906B7886
:1044D000AA78D9A1DD48FFF7A5FAE868FCF7B6F895
:1044E00002460B46DAA101A8FFF79CFAD748D5E9A6
:1044F0000A23DCA11430FFF795FAD448D5E9082344
:10450000DBA11E30FFF78EFAD048FEF7D3FE012163
:104510000020FEF783FE01A8FEF7CCFE022100205A
:10452000FEF77CFEC9481430FEF7C4FE03210020CC
:10453000FEF774FEC5481E30FEF7BCFE3878002832
:104540003FF47BAFFEF750FE00210846FEF766FE03
:10455000CAA0FEF7AFFE01210020FEF75FFECDA04E
:10456000FEF7A8FE02210020FEF758FECDA0FEF7C0
:10457000A1FE03210020FEF751FECEA0FEF79AFE19
:1045800071E001210F20FEF749FECE4D2868FCF7AF
:104590005DF802460B46CCA16846FFF743FA684631
:1045A000FEF788FE99F800004E4601282BD1012124
:1045B0001320FEF733FEC6A0FEF77CFE2868FCF74A
:1045C00045F8994AC34BFBF793FEFCF76BF8C249D9
:1045D0002860FBF743FEC8F8000001210F20FEF71A
:1045E0001DFE2868FCF732F802460B46B6A103A868
:1045F000FFF718FA03A8FEF75DFEB8482968814264
:1046000000DB286034709AF80000564601282AD151
:1046100001211320FEF702FEADA0FEF74BFE286835
:10462000FCF714F8804AAB4BFBF703FFFCF73AF8B2
:10463000A9492860FBF712FEC8F8000001210F20ED
:10464000FEF7ECFD2868FCF701F802460B469EA138
:1046500003A8FFF7E7F903A8FEF72CFE28685845E2
:1046600000DA2C603470387801288AD065E00221A5
:104670000F20FEF7D3FD9A4D2868FBF7E7FF0246AF
:104680000B4698A16846FFF7CDF96846FEF712FE83
:1046900099F800004E46012822D102211320FEF78E
:1046A000BDFD8BA0FEF706FE4FF07E512868FBF79C
:1046B0007DFD286002210F20FEF7B0FD2868FBF782
:1046C000C5FF02460B4687A103A8FFF7ABF903A875
:1046D000FEF7F0FD85482968814200DB28603470D0
:1046E0009AF800005646012821D102211320FEF736
:1046F00095FD77A0FEF7DEFD4FF07E512868FBF7B1
:10470000A7FD286002210F20FEF788FD2868FBF72F
:104710009DFF02460B4673A103A8FFF783F903A888
:10472000FEF7C8FD2868584500DA2C6034704FF455
:1047300000713548FCF770FC50B13878022896D0EB
:10474000C0B20328FFF478AEFFF71CFE3C70F5E61C
:10475000D8F80000FBF77AFF4FF06632644BFBF7A6
:10476000E0FE0022634BFBF76AFEFBF79BFF2B4D3D
:104770000021A8610846FEF751FD5FA0FEF79AFDF3
:1047800001210020FEF74AFD42A0FEF793FD012122
:104790000F20FEF743FD4B480068FBF757FF02462A
:1047A0000B465BA12948FFF73DF92848FEF782FD3B
:1047B00002210020FEF732FD57A0FEF77BFD02210B
:1047C0000F20FEF72BFD46480068FBF73FFF02462F
:1047D0000B4644A16846FFF725F96846FEF76AFDD7
:1047E000FEF7A2FD10214F489EE0000041496F54A2
:1047F000000000007072652D70726F647563740044
:1048000020010020E00000200008014032000020CC
:10481000330000203800002031000020000000207C
:10482000FCA9F1D24D62003F9A9999999999293F33
:104830004D62803F0020AC4054696D653A253032AE
:10484000643A253032643A2530326400500000204A
:1048500043617061636974793A25322E3366416829
:1048600000000000563A25322E3366560000000044
:10487000493A25322E336641000000002D2D2D2DA2
:104880002D2D2D2D4D4F44452D2D2D2D2D2D2D2DE7
:1048900000000000446973636861726765204375B6
:1048A00072723A004D696E696D756D20566F6C3A83
:1048B0000000000020202020202020202020202078
:1048C000000000003400002025322E316641000037
:1048D000200000009999C93F0000C04000007041CD
:1048E0003C00002025322E31665600000000344284
:1048F00066660A4000FEAF40202020202020204392
:104900006F6E6669726D202020202020000000005C
:1049100025322E31666D41004D696E696D756D20D1
:10492000566F6C0078000020FCF793F90849A869DD
:10493000FBF73CFCFBF776FE0346002210210548FE
:10494000FCF77AF9FEF750FC03483C700470F5E57B
:1049500000007041780000203000002070B5FCF7A6
:104960002BF80120FCF742FACC20FCF74BF844204E
:10497000FCF748F84FF44870FCF738FAFCF71CF8DD
:104980000120FCF733FACC20FCF73CF8BE20FCF702
:1049900039F8FBF7E3FF0446FBF7E0FF064604F0B7
:1049A0000F00FBF72DFE6FF00301FBF795FC0546AA
:1049B000200906F00F0140EA0110FBF721FE29460D
:1049C000BDE87040FBF7F2BB0000000000000000F3
:1049D00001020304060708090000000001020304A5
:1049E000004A000800000020500000004C3A000877
:1049F000504A000850000020500500005C3A0008B2
:104A000000000000000000000000000000000000A6
:104A10000000000000000000000000000000000096
:104A20000000000000000000000000000000000086
:104A30000000000000000000000000000000000076
:104A400001000000100000000000000000A24A0465
:0400000508000131BD
:00000001FF
